{"abi":[{"type":"constructor","inputs":[{"name":"_providerVault","type":"address","internalType":"address"},{"name":"_adminAddress","type":"address","internalType":"address"},{"name":"_verifier","type":"address","internalType":"contract IRiscZeroVerifier"}],"stateMutability":"nonpayable"},{"type":"function","name":"ADMIN","inputs":[],"outputs":[{"name":"","type":"bytes32","internalType":"bytes32"}],"stateMutability":"view"},{"type":"function","name":"DEFAULT_ADMIN_ROLE","inputs":[],"outputs":[{"name":"","type":"bytes32","internalType":"bytes32"}],"stateMutability":"view"},{"type":"function","name":"acceptDefaultAdminTransfer","inputs":[],"outputs":[],"stateMutability":"nonpayable"},{"type":"function","name":"beginDefaultAdminTransfer","inputs":[{"name":"newAdmin","type":"address","internalType":"address"}],"outputs":[],"stateMutability":"nonpayable"},{"type":"function","name":"cancelChallenge","inputs":[{"name":"_id","type":"bytes32","internalType":"bytes32"}],"outputs":[],"stateMutability":"nonpayable"},{"type":"function","name":"cancelDefaultAdminTransfer","inputs":[],"outputs":[],"stateMutability":"nonpayable"},{"type":"function","name":"changeDefaultAdminDelay","inputs":[{"name":"newDelay","type":"uint48","internalType":"uint48"}],"outputs":[],"stateMutability":"nonpayable"},{"type":"function","name":"createChallenge","inputs":[{"name":"_ludexId","type":"uint256","internalType":"uint256"},{"name":"_mediator","type":"address","internalType":"address payable"},{"name":"_entryAmount","type":"uint256","internalType":"uint256"},{"name":"_limit","type":"uint256","internalType":"uint256"},{"name":"_verified","type":"bool","internalType":"bool"},{"name":"_isNative","type":"bool","internalType":"bool"},{"name":"_tokenAddress","type":"address","internalType":"address"},{"name":"_providerAmount","type":"uint256","internalType":"uint256"},{"name":"_mediatorAmount","type":"uint256","internalType":"uint256"},{"name":"_out","type":"uint256","internalType":"uint256"}],"outputs":[],"stateMutability":"nonpayable"},{"type":"function","name":"defaultAdmin","inputs":[],"outputs":[{"name":"","type":"address","internalType":"address"}],"stateMutability":"view"},{"type":"function","name":"defaultAdminDelay","inputs":[],"outputs":[{"name":"","type":"uint48","internalType":"uint48"}],"stateMutability":"view"},{"type":"function","name":"defaultAdminDelayIncreaseWait","inputs":[],"outputs":[{"name":"","type":"uint48","internalType":"uint48"}],"stateMutability":"view"},{"type":"function","name":"getChallenge","inputs":[{"name":"id","type":"bytes32","internalType":"bytes32"}],"outputs":[{"name":"","type":"tuple","internalType":"struct LudexProtocol.Challenge","components":[{"name":"id","type":"bytes32","internalType":"bytes32"},{"name":"mediator","type":"address","internalType":"address payable"},{"name":"players","type":"address[]","internalType":"address payable[]"},{"name":"entryAmount","type":"uint256","internalType":"uint256"},{"name":"limit","type":"uint256","internalType":"uint256"},{"name":"state","type":"uint8","internalType":"enum LudexProtocol.ChallengeState"},{"name":"verified","type":"bool","internalType":"bool"},{"name":"isNative","type":"bool","internalType":"bool"},{"name":"tokenAddress","type":"address","internalType":"address"},{"name":"providerAmount","type":"uint256","internalType":"uint256"},{"name":"mediatorAmount","type":"uint256","internalType":"uint256"},{"name":"out","type":"uint256","internalType":"uint256"}]}],"stateMutability":"view"},{"type":"function","name":"getChallengeCount","inputs":[],"outputs":[{"name":"","type":"uint256","internalType":"uint256"}],"stateMutability":"view"},{"type":"function","name":"getNumDigits","inputs":[{"name":"num","type":"uint256","internalType":"uint256"}],"outputs":[{"name":"","type":"uint256","internalType":"uint256"}],"stateMutability":"pure"},{"type":"function","name":"getProviderVault","inputs":[],"outputs":[{"name":"","type":"address","internalType":"address payable"}],"stateMutability":"view"},{"type":"function","name":"getRoleAdmin","inputs":[{"name":"role","type":"bytes32","internalType":"bytes32"}],"outputs":[{"name":"","type":"bytes32","internalType":"bytes32"}],"stateMutability":"view"},{"type":"function","name":"getTrimmedNumber","inputs":[{"name":"num","type":"uint256","internalType":"uint256"},{"name":"digits","type":"uint256","internalType":"uint256"}],"outputs":[{"name":"","type":"uint256","internalType":"uint256"}],"stateMutability":"pure"},{"type":"function","name":"grantRole","inputs":[{"name":"role","type":"bytes32","internalType":"bytes32"},{"name":"account","type":"address","internalType":"address"}],"outputs":[],"stateMutability":"nonpayable"},{"type":"function","name":"hasRole","inputs":[{"name":"role","type":"bytes32","internalType":"bytes32"},{"name":"account","type":"address","internalType":"address"}],"outputs":[{"name":"","type":"bool","internalType":"bool"}],"stateMutability":"view"},{"type":"function","name":"imageId","inputs":[],"outputs":[{"name":"","type":"bytes32","internalType":"bytes32"}],"stateMutability":"view"},{"type":"function","name":"joinChallenge","inputs":[{"name":"lobbyPassword","type":"uint256","internalType":"uint256"},{"name":"seal","type":"bytes","internalType":"bytes"}],"outputs":[],"stateMutability":"payable"},{"type":"function","name":"leaveChallenge","inputs":[{"name":"_id","type":"bytes32","internalType":"bytes32"}],"outputs":[],"stateMutability":"nonpayable"},{"type":"function","name":"lockChallenge","inputs":[{"name":"_id","type":"bytes32","internalType":"bytes32"}],"outputs":[],"stateMutability":"nonpayable"},{"type":"function","name":"owner","inputs":[],"outputs":[{"name":"","type":"address","internalType":"address"}],"stateMutability":"view"},{"type":"function","name":"pendingDefaultAdmin","inputs":[],"outputs":[{"name":"newAdmin","type":"address","internalType":"address"},{"name":"schedule","type":"uint48","internalType":"uint48"}],"stateMutability":"view"},{"type":"function","name":"pendingDefaultAdminDelay","inputs":[],"outputs":[{"name":"newDelay","type":"uint48","internalType":"uint48"},{"name":"schedule","type":"uint48","internalType":"uint48"}],"stateMutability":"view"},{"type":"function","name":"renounceRole","inputs":[{"name":"role","type":"bytes32","internalType":"bytes32"},{"name":"account","type":"address","internalType":"address"}],"outputs":[],"stateMutability":"nonpayable"},{"type":"function","name":"resolveChallenge","inputs":[{"name":"_id","type":"bytes32","internalType":"bytes32"},{"name":"_mediatorVault","type":"address","internalType":"address payable"},{"name":"_payment","type":"tuple[]","internalType":"struct LudexProtocol.Payout[]","components":[{"name":"to","type":"address","internalType":"address"},{"name":"amount","type":"uint256","internalType":"uint256"}]}],"outputs":[],"stateMutability":"nonpayable"},{"type":"function","name":"revokeRole","inputs":[{"name":"role","type":"bytes32","internalType":"bytes32"},{"name":"account","type":"address","internalType":"address"}],"outputs":[],"stateMutability":"nonpayable"},{"type":"function","name":"rollbackDefaultAdminDelay","inputs":[],"outputs":[],"stateMutability":"nonpayable"},{"type":"function","name":"setProviderVault","inputs":[{"name":"_providerVault","type":"address","internalType":"address payable"}],"outputs":[],"stateMutability":"nonpayable"},{"type":"function","name":"supportsInterface","inputs":[{"name":"interfaceId","type":"bytes4","internalType":"bytes4"}],"outputs":[{"name":"","type":"bool","internalType":"bool"}],"stateMutability":"view"},{"type":"function","name":"verifier","inputs":[],"outputs":[{"name":"","type":"address","internalType":"contract IRiscZeroVerifier"}],"stateMutability":"view"},{"type":"event","name":"CanceledChallenge","inputs":[{"name":"id","type":"bytes32","indexed":true,"internalType":"bytes32"}],"anonymous":false},{"type":"event","name":"CreatedChallenge","inputs":[{"name":"id","type":"bytes32","indexed":true,"internalType":"bytes32"},{"name":"_ludexId","type":"uint256","indexed":false,"internalType":"uint256"}],"anonymous":false},{"type":"event","name":"DefaultAdminDelayChangeCanceled","inputs":[],"anonymous":false},{"type":"event","name":"DefaultAdminDelayChangeScheduled","inputs":[{"name":"newDelay","type":"uint48","indexed":false,"internalType":"uint48"},{"name":"effectSchedule","type":"uint48","indexed":false,"internalType":"uint48"}],"anonymous":false},{"type":"event","name":"DefaultAdminTransferCanceled","inputs":[],"anonymous":false},{"type":"event","name":"DefaultAdminTransferScheduled","inputs":[{"name":"newAdmin","type":"address","indexed":true,"internalType":"address"},{"name":"acceptSchedule","type":"uint48","indexed":false,"internalType":"uint48"}],"anonymous":false},{"type":"event","name":"JoinedChallenge","inputs":[{"name":"id","type":"bytes32","indexed":true,"internalType":"bytes32"},{"name":"_player","type":"address","indexed":true,"internalType":"address"}],"anonymous":false},{"type":"event","name":"LeftChallenge","inputs":[{"name":"id","type":"bytes32","indexed":true,"internalType":"bytes32"},{"name":"_player","type":"address","indexed":true,"internalType":"address"}],"anonymous":false},{"type":"event","name":"LockedChallenge","inputs":[{"name":"id","type":"bytes32","indexed":true,"internalType":"bytes32"}],"anonymous":false},{"type":"event","name":"ResolvedChallenge","inputs":[{"name":"id","type":"bytes32","indexed":true,"internalType":"bytes32"},{"name":"_payment","type":"tuple[]","indexed":false,"internalType":"struct LudexProtocol.Payout[]","components":[{"name":"to","type":"address","internalType":"address"},{"name":"amount","type":"uint256","internalType":"uint256"}]}],"anonymous":false},{"type":"event","name":"RoleAdminChanged","inputs":[{"name":"role","type":"bytes32","indexed":true,"internalType":"bytes32"},{"name":"previousAdminRole","type":"bytes32","indexed":true,"internalType":"bytes32"},{"name":"newAdminRole","type":"bytes32","indexed":true,"internalType":"bytes32"}],"anonymous":false},{"type":"event","name":"RoleGranted","inputs":[{"name":"role","type":"bytes32","indexed":true,"internalType":"bytes32"},{"name":"account","type":"address","indexed":true,"internalType":"address"},{"name":"sender","type":"address","indexed":true,"internalType":"address"}],"anonymous":false},{"type":"event","name":"RoleRevoked","inputs":[{"name":"role","type":"bytes32","indexed":true,"internalType":"bytes32"},{"name":"account","type":"address","indexed":true,"internalType":"address"},{"name":"sender","type":"address","indexed":true,"internalType":"address"}],"anonymous":false},{"type":"error","name":"AccessControlBadConfirmation","inputs":[]},{"type":"error","name":"AccessControlEnforcedDefaultAdminDelay","inputs":[{"name":"schedule","type":"uint48","internalType":"uint48"}]},{"type":"error","name":"AccessControlEnforcedDefaultAdminRules","inputs":[]},{"type":"error","name":"AccessControlInvalidDefaultAdmin","inputs":[{"name":"defaultAdmin","type":"address","internalType":"address"}]},{"type":"error","name":"AccessControlUnauthorizedAccount","inputs":[{"name":"account","type":"address","internalType":"address"},{"name":"neededRole","type":"bytes32","internalType":"bytes32"}]},{"type":"error","name":"Ludex__CancelChallengeError","inputs":[{"name":"variableCheck","type":"uint256","internalType":"uint256"}]},{"type":"error","name":"Ludex__CreateNewChallengeError","inputs":[{"name":"variableCheck","type":"uint256","internalType":"uint256"}]},{"type":"error","name":"Ludex__GetChallengeError","inputs":[]},{"type":"error","name":"Ludex__LeaveChallengeError","inputs":[{"name":"variableCheck","type":"uint256","internalType":"uint256"}]},{"type":"error","name":"Ludex__LockChallengeError","inputs":[{"name":"variableCheck","type":"uint256","internalType":"uint256"}]},{"type":"error","name":"Ludex__PayoutError","inputs":[]},{"type":"error","name":"Ludex__PayoutToAddressError","inputs":[]},{"type":"error","name":"Ludex__ResolveChallengeError","inputs":[{"name":"variableCheck","type":"uint256","internalType":"uint256"}]},{"type":"error","name":"Ludex__TransferFailedErorr","inputs":[]},{"type":"error","name":"ReentrancyGuardReentrantCall","inputs":[]},{"type":"error","name":"SafeCastOverflowedUintDowncast","inputs":[{"name":"bits","type":"uint8","internalType":"uint8"},{"name":"value","type":"uint256","internalType":"uint256"}]}],"bytecode":{"object":"0x60a060405260006005553480156200001657600080fd5b506040516200332e3803806200332e833981016040819052620000399162000219565b600160005561012c33806200006857604051636116401160e11b81526000600482015260240160405180910390fd5b600280546001600160d01b0316600160d01b65ffffffffffff85160217905562000094600082620000f4565b5050600680546001600160a01b0319166001600160a01b03861617905550620000de7fdf8b4c520ffe197c5343c6f5aec59570151ef9a492f2c624fd45ddde6135ec4283620000f4565b506001600160a01b0316608052506200026d9050565b60008262000155576000620001116003546001600160a01b031690565b6001600160a01b0316146200013957604051631fe1e13d60e11b815260040160405180910390fd5b600380546001600160a01b0319166001600160a01b0384161790555b6200016183836200016a565b90505b92915050565b60008281526001602090815260408083206001600160a01b038516845290915281205460ff16620001f75760008381526001602081815260408084206001600160a01b0387168086529252808420805460ff19169093179092559051339286917f2f8788117e7eff1d82e926ec794901d17c78024a50270940304540a733656f0d9190a450600162000164565b50600062000164565b6001600160a01b03811681146200021657600080fd5b50565b6000806000606084860312156200022f57600080fd5b83516200023c8162000200565b60208501519093506200024f8162000200565b6040850151909250620002628162000200565b809150509250925092565b60805161309e62000290600039600081816102ec01526111c5015261309e6000f3fe6080604052600436106101ee5760003560e01c80637f205caa1161010d578063b06104bb116100a0578063cefc14291161006f578063cefc1429146105b5578063cf6eefb7146105ca578063d547741f14610605578063d602b9fd14610625578063ef3f7dd51461063a57600080fd5b8063b06104bb14610540578063b4477c0114610560578063c785dc3d14610580578063cc8463c8146105a057600080fd5b806391d14854116100dc57806391d14854146104b9578063a1eda53c146104d9578063a217fddf1461050d578063aa2c99831461052257600080fd5b80637f205caa1461044657806384ef8ffc146104665780638b65272b146104845780638da5cb5b146104a457600080fd5b80632fced4bf1161018557806347c8b9c01161015457806347c8b9c0146103d35780634f75a689146103e6578063634e93da14610406578063649a5ec71461042657600080fd5b80632fced4bf1461034657806336568abe14610366578063458d2bf11461038657806346e207ae146103b357600080fd5b8063248a9ca3116101c1578063248a9ca3146102875780632a0acc6a146102b85780632b7ac3f3146102da5780632f2ff15d1461032657600080fd5b806301ffc9a7146101f3578063022d63fb146102285780630933f467146102515780630aa6220b14610270575b600080fd5b3480156101ff57600080fd5b5061021361020e366004612954565b61066e565b60405190151581526020015b60405180910390f35b34801561023457600080fd5b50620697805b60405165ffffffffffff909116815260200161021f565b34801561025d57600080fd5b506005545b60405190815260200161021f565b34801561027c57600080fd5b50610285610699565b005b34801561029357600080fd5b506102626102a236600461297e565b6000908152600160208190526040909120015490565b3480156102c457600080fd5b5061026260008051602061304983398151915281565b3480156102e657600080fd5b5061030e7f000000000000000000000000000000000000000000000000000000000000000081565b6040516001600160a01b03909116815260200161021f565b34801561033257600080fd5b506102856103413660046129ac565b6106af565b34801561035257600080fd5b506102856103613660046129dc565b6106db565b34801561037257600080fd5b506102856103813660046129ac565b610709565b34801561039257600080fd5b506103a66103a136600461297e565b6107b5565b60405161021f9190612a75565b3480156103bf57600080fd5b506102856103ce366004612b4b565b610982565b6102856103e1366004612bd7565b611195565b3480156103f257600080fd5b5061028561040136600461297e565b6112c7565b34801561041257600080fd5b506102856104213660046129dc565b6114cc565b34801561043257600080fd5b50610285610441366004612c53565b6114e0565b34801561045257600080fd5b5061028561046136600461297e565b6114f4565b34801561047257600080fd5b506003546001600160a01b031661030e565b34801561049057600080fd5b5061028561049f366004612c89565b61188b565b3480156104b057600080fd5b5061030e611b75565b3480156104c557600080fd5b506102136104d43660046129ac565b611b8e565b3480156104e557600080fd5b506104ee611bb9565b6040805165ffffffffffff93841681529290911660208301520161021f565b34801561051957600080fd5b50610262600081565b34801561052e57600080fd5b506006546001600160a01b031661030e565b34801561054c57600080fd5b5061026261055b36600461297e565b611c0d565b34801561056c57600080fd5b5061028561057b36600461297e565b611c33565b34801561058c57600080fd5b5061026261059b366004612d23565b6120b0565b3480156105ac57600080fd5b5061023a6120f5565b3480156105c157600080fd5b50610285612154565b3480156105d657600080fd5b506105df612194565b604080516001600160a01b03909316835265ffffffffffff90911660208301520161021f565b34801561061157600080fd5b506102856106203660046129ac565b6121b5565b34801561063157600080fd5b506102856121dd565b34801561064657600080fd5b506102627f59b5af9069b40aa1bfc07f8dcac3d618e224c40b0aae305d52442dddeedd53a281565b60006001600160e01b031982166318a4c3c360e11b14806106935750610693826121f0565b92915050565b60006106a481612225565b6106ac61222f565b50565b816106cd57604051631fe1e13d60e11b815260040160405180910390fd5b6106d7828261223c565b5050565b60006106e681612225565b50600680546001600160a01b0319166001600160a01b0392909216919091179055565b8115801561072457506003546001600160a01b038281169116145b156107ab57600080610734612194565b90925090506001600160a01b038216151580610756575065ffffffffffff8116155b8061076957504265ffffffffffff821610155b15610796576040516319ca5ebb60e01b815265ffffffffffff821660048201526024015b60405180910390fd5b50506002805465ffffffffffff60a01b191690555b6106d78282612262565b604080516101808101825260008082526020808301829052606083850181905283018290526080830182905260a0830182905260c0830182905260e0830182905261010083018290526101208301829052610140830182905261016083018290528482526004905291909120600101546001600160a01b031615158061084e57604051637440394160e11b815260040160405180910390fd5b6000838152600460209081526040918290208251610180810184528154815260018201546001600160a01b031681840152600282018054855181860281018601875281815292959394938601938301828280156108d457602002820191906000526020600020905b81546001600160a01b031681526001909101906020018083116108b6575b5050509183525050600382810154602083015260048301546040830152600583015460609092019160ff169081111561090f5761090f612a3d565b600381111561092057610920612a3d565b8152600582015460ff610100820481161515602084015262010000820416151560408301526001600160a01b03630100000090910416606082015260068201546080820152600782015460a082015260089091015460c0909101529392505050565b61098a612295565b60008481526004602090815260408083208151610180810183528154815260018201546001600160a01b031681850152600282018054845181870281018701865281815292959394860193830182828015610a0e57602002820191906000526020600020905b81546001600160a01b031681526001909101906020018083116109f0575b5050509183525050600382810154602083015260048301546040830152600583015460609092019160ff1690811115610a4957610a49612a3d565b6003811115610a5a57610a5a612a3d565b8152600582015460ff610100820481161515602084015262010000820416151560408301526001600160a01b03630100000090910416606082015260068201546080820152600782015460a082015260089091015460c0909101529050600060018260a001516003811115610ad157610ad1612a3d565b6020840151911491506001600160a01b0316331481610b06576040516387f1594160e01b81526000600482015260240161078d565b80610b27576040516387f1594160e01b81526001600482015260240161078d565b60008060005b86811015610c1957878782818110610b4757610b47612d45565b9050604002016020013582610b5c9190612d71565b91506000805b876040015151811015610be75787604001518181518110610b8557610b85612d45565b60200260200101516001600160a01b03168a8a85818110610ba857610ba8612d45565b610bbe92602060409092020190810191506129dc565b6001600160a01b031603610bd55760019150610be7565b80610bdf81612d84565b915050610b62565b5080610c0657604051634889955360e01b815260040160405180910390fd5b5080610c1181612d84565b915050610b2d565b508460600151856040015151610c2f9190612d9d565b856101400151866040015151610c459190612d9d565b866101200151876040015151610c5b9190612d9d565b610c659084612d71565b610c6f9190612d71565b03610c7957600191505b81610c9757604051633c5634a360e11b815260040160405180910390fd5b60005b86811015610e6c578560e0015115610d68576000888883818110610cc057610cc0612d45565b610cd692602060409092020190810191506129dc565b6001600160a01b0316898984818110610cf157610cf1612d45565b9050604002016020013560405160006040518083038185875af1925050503d8060008114610d3b576040519150601f19603f3d011682016040523d82523d6000602084013e610d40565b606091505b5050905080610d62576040516341d5200960e01b815260040160405180910390fd5b50610e5a565b61010086015160006001600160a01b03821663a9059cbb8b8b86818110610d9157610d91612d45565b610da792602060409092020190810191506129dc565b8c8c87818110610db957610db9612d45565b905060400201602001356040518363ffffffff1660e01b8152600401610df49291906001600160a01b03929092168252602082015260400190565b6020604051808303816000875af1158015610e13573d6000803e3d6000fd5b505050506040513d601f19601f82011682018060405250810190610e379190612db4565b905080610e57576040516341d5200960e01b815260040160405180910390fd5b50505b80610e6481612d84565b915050610c9a565b508460e0015115610f02576000886001600160a01b0316866101400151876040015151610e999190612d9d565b604051600081818185875af1925050503d8060008114610ed5576040519150601f19603f3d011682016040523d82523d6000602084013e610eda565b606091505b5050905080610efc576040516341d5200960e01b815260040160405180910390fd5b50610fc6565b600085610100015190506000816001600160a01b031663a9059cbb8b8961014001518a6040015151610f349190612d9d565b6040516001600160e01b031960e085901b1681526001600160a01b03909216600483015260248201526044016020604051808303816000875af1158015610f7f573d6000803e3d6000fd5b505050506040513d601f19601f82011682018060405250810190610fa39190612db4565b905080610fc3576040516341d5200960e01b815260040160405180910390fd5b50505b8460e001511561105e576006546101208601516040870151516000926001600160a01b031691610ff591612d9d565b604051600081818185875af1925050503d8060008114611031576040519150601f19603f3d011682016040523d82523d6000602084013e611036565b606091505b5050905080611058576040516341d5200960e01b815260040160405180910390fd5b50611128565b6101008501516006546101208701516040880151516000926001600160a01b038086169363a9059cbb93919092169161109691612d9d565b6040516001600160e01b031960e085901b1681526001600160a01b03909216600483015260248201526044016020604051808303816000875af11580156110e1573d6000803e3d6000fd5b505050506040513d601f19601f820116820180604052508101906111059190612db4565b905080611125576040516341d5200960e01b815260040160405180910390fd5b50505b60008981526004602052604090819020600501805460ff191660031790555189907f1f6d10a5a5780a1d5e0ac48228324b0da52257c80778b8cb9a4a51a3308ca0d590611178908a908a90612dd1565b60405180910390a2505050505061118f6001600055565b50505050565b61119d612295565b6000836040516020016111b291815260200190565b60405160208183030381529060405290507f00000000000000000000000000000000000000000000000000000000000000006001600160a01b031663ab750e7584847f59b5af9069b40aa1bfc07f8dcac3d618e224c40b0aae305d52442dddeedd53a260001b6002866040516112289190612e2a565b602060405180830381855afa158015611245573d6000803e3d6000fd5b5050506040513d601f19601f820116820180604052508101906112689190612e59565b6040518563ffffffff1660e01b81526004016112879493929190612e72565b60006040518083038186803b15801561129f57600080fd5b505afa1580156112b3573d6000803e3d6000fd5b50505050506112c26001600055565b505050565b6000805160206130498339815191526112df81612225565b6112e7612295565b60008281526004602090815260408083208151610180810183528154815260018201546001600160a01b03168185015260028201805484518187028101870186528181529295939486019383018282801561136b57602002820191906000526020600020905b81546001600160a01b0316815260019091019060200180831161134d575b5050509183525050600382810154602083015260048301546040830152600583015460609092019160ff16908111156113a6576113a6612a3d565b60038111156113b7576113b7612a3d565b8152600582015460ff610100820481161515602084015262010000820416151560408301526001600160a01b03630100000090910416606082015260068201546080820152600782015460a082015260089091015460c09091015290506000808260a00151600381111561142d5761142d612a3d565b604084015151911491506001108161145b57604051633839d62f60e11b81526000600482015260240161078d565b8061147c57604051633839d62f60e11b81526001600482015260240161078d565b600085815260046020526040808220600501805460ff191660011790555186917f8dc917c7f7605de0caba92b7cf854a4443a37840ed05c9362f99853d88e1f84591a25050506106d76001600055565b60006114d781612225565b6106d7826122bf565b60006114eb81612225565b6106d782612332565b60008051602061304983398151915261150c81612225565b611514612295565b60008281526004602090815260408083208151610180810183528154815260018201546001600160a01b03168185015260028201805484518187028101870186528181529295939486019383018282801561159857602002820191906000526020600020905b81546001600160a01b0316815260019091019060200180831161157a575b5050509183525050600382810154602083015260048301546040830152600583015460609092019160ff16908111156115d3576115d3612a3d565b60038111156115e4576115e4612a3d565b8152600582015460ff610100820481161515602084015262010000820416151560408301526001600160a01b03630100000090910416606082015260068201546080820152600782015460a082015260089091015460c0909101529050600060018260a00151600381111561165b5761165b612a3d565b148061167c575060008260a00151600381111561167a5761167a612a3d565b145b90508061169f5760405163f65d953b60e01b81526000600482015260240161078d565b60005b82604001515181101561183b578260e0015115611754576000836040015182815181106116d1576116d1612d45565b60200260200101516001600160a01b0316846060015160405160006040518083038185875af1925050503d8060008114611727576040519150601f19603f3d011682016040523d82523d6000602084013e61172c565b606091505b505090508061174e576040516341d5200960e01b815260040160405180910390fd5b50611829565b600083610100015190506000816001600160a01b031663a9059cbb8660400151858151811061178557611785612d45565b602002602001015187606001516040518363ffffffff1660e01b81526004016117c39291906001600160a01b03929092168252602082015260400190565b6020604051808303816000875af11580156117e2573d6000803e3d6000fd5b505050506040513d601f19601f820116820180604052508101906118069190612db4565b905080611826576040516341d5200960e01b815260040160405180910390fd5b50505b8061183381612d84565b9150506116a2565b50600084815260046020526040808220600501805460ff191660021790555185917ff688bd7ac1dde759ccc1883b0a31208132742b4656b4512d1faffda2598de1db91a250506106d76001600055565b6000805160206130498339815191526118a381612225565b6118ab612295565b6000861580156118c257506001600160a01b038616155b9050600081156118e857604051632a70967f60e01b81526000600482015260240161078d565b801561190a57604051632a70967f60e01b81526001600482015260240161078d565b6005546040516bffffffffffffffffffffffff193060601b16602082015260348101919091526000906054016040516020818303038152906040528051906020012090506040518061018001604052808281526020018e6001600160a01b03168152602001600067ffffffffffffffff81111561198957611989612eb2565b6040519080825280602002602001820160405280156119b2578160200160208202803683370190505b50815260208082018f905260408083018f90526000606084018190528e151560808501528d151560a08501526001600160a01b038d811660c086015260e085018d905261010085018c90526101209094018a90528581526004835281902084518155848301516001820180546001600160a01b03191691909516179093558301518051611a4592600285019201906128e3565b50606082015181600301556080820151816004015560a08201518160050160006101000a81548160ff02191690836003811115611a8457611a84612a3d565b021790555060c08201516005808301805460e0860151610100808801516001600160a01b03166301000000026301000000600160b81b0319921515620100000262ff0000199715159092029690961662ffff00199093169290921791909117169290921790915561012083015160068301556101408301516007830155610160909201516008909101558054906000611b1c83612d84565b9190505550807f5400ed6774d3e642e084ca28f2596fc97059aa22e0405b1f905972290b4722778f604051611b5391815260200190565b60405180910390a2505050611b686001600055565b5050505050505050505050565b6000611b896003546001600160a01b031690565b905090565b60009182526001602090815260408084206001600160a01b0393909316845291905290205460ff1690565b600354600090600160d01b900465ffffffffffff168015158015611be557504265ffffffffffff821610155b611bf157600080611c05565b600354600160a01b900465ffffffffffff16815b915091509091565b600081600003611c1f57506001919050565b611c28826123a2565b610693906001612d71565b611c3b612295565b60008181526004602090815260408083208151610180810183528154815260018201546001600160a01b031681850152600282018054845181870281018701865281815292959394860193830182828015611cbf57602002820191906000526020600020905b81546001600160a01b03168152600190910190602001808311611ca1575b5050509183525050600382810154602083015260048301546040830152600583015460609092019160ff1690811115611cfa57611cfa612a3d565b6003811115611d0b57611d0b612a3d565b8152600582015460ff610100820481161515602084015262010000820416151560408301526001600160a01b03630100000090910416606082015260068201546080820152600782015460a082015260089091015460c09091015290506000808260a001516003811115611d8157611d81612a3d565b1490506000805b836040015151811015611de257336001600160a01b031684604001518281518110611db557611db5612d45565b60200260200101516001600160a01b031603611dd057600191505b80611dda81612d84565b915050611d88565b5081611e0457604051632d6d5f3760e01b81526000600482015260240161078d565b80611e2557604051632d6d5f3760e01b81526001600482015260240161078d565b60005b836040015151811015611f5657336001600160a01b031684604001518281518110611e5557611e55612d45565b60200260200101516001600160a01b031603611f445760008581526004602052604090206002018054611e8a90600190612ec8565b81548110611e9a57611e9a612d45565b60009182526020808320909101548783526004909152604090912060020180546001600160a01b039092169183908110611ed657611ed6612d45565b600091825260208083209190910180546001600160a01b0319166001600160a01b039490941693909317909255868152600490915260409020600201805480611f2157611f21612edb565b600082815260209020810160001990810180546001600160a01b03191690550190555b80611f4e81612d84565b915050611e28565b508260e0015115611fd357606083015160405160009133918381818185875af1925050503d8060008114611fa6576040519150601f19603f3d011682016040523d82523d6000602084013e611fab565b606091505b5050905080611fcd576040516341d5200960e01b815260040160405180910390fd5b50612076565b610100830151606084015160405163a9059cbb60e01b815233600482015260248101919091526000906001600160a01b0383169063a9059cbb906044016020604051808303816000875af115801561202f573d6000803e3d6000fd5b505050506040513d601f19601f820116820180604052508101906120539190612db4565b905080612073576040516341d5200960e01b815260040160405180910390fd5b50505b604051339085907fe53530606e8b60703cb71ee9ca33fef3995129cceeb01758b04925c0880dd55190600090a35050506106ac6001600055565b6000806120bc84611c0d565b9050828111156120ed576120d08382612ec8565b6120db90600a612fd5565b6120e59085612fe1565b915050610693565b509192915050565b600354600090600160d01b900465ffffffffffff16801515801561212057504265ffffffffffff8216105b61213b57600254600160d01b900465ffffffffffff1661214e565b600354600160a01b900465ffffffffffff165b91505090565b600061215e612194565b509050336001600160a01b0382161461218c57604051636116401160e11b815233600482015260240161078d565b6106ac61247a565b6002546001600160a01b03811691600160a01b90910465ffffffffffff1690565b816121d357604051631fe1e13d60e11b815260040160405180910390fd5b6106d78282612513565b60006121e881612225565b6106ac612539565b60006001600160e01b03198216637965db0b60e01b148061069357506301ffc9a760e01b6001600160e01b0319831614610693565b6106ac8133612544565b61223a60008061257d565b565b6000828152600160208190526040909120015461225881612225565b61118f838361263d565b6001600160a01b038116331461228b5760405163334bd91960e11b815260040160405180910390fd5b6112c282826126ac565b6002600054036122b857604051633ee5aeb560e01b815260040160405180910390fd5b6002600055565b60006122c96120f5565b6122d2426126e9565b6122dc9190613003565b90506122e88282612720565b60405165ffffffffffff821681526001600160a01b038316907f3377dc44241e779dd06afab5b788a35ca5f3b778836e2990bdb26a2a4b2e5ed69060200160405180910390a25050565b600061233d8261279f565b612346426126e9565b6123509190613003565b905061235c828261257d565b6040805165ffffffffffff8085168252831660208201527ff1038c18cf84a56e432fdbfaf746924b7ea511dfe03a6506a0ceba4888788d9b910160405180910390a15050565b60008072184f03e93ff9f4daa797ed6e38ed64bf6a1f0160401b83106123e15772184f03e93ff9f4daa797ed6e38ed64bf6a1f0160401b830492506040015b6d04ee2d6d415b85acef8100000000831061240d576d04ee2d6d415b85acef8100000000830492506020015b662386f26fc10000831061242b57662386f26fc10000830492506010015b6305f5e1008310612443576305f5e100830492506008015b612710831061245757612710830492506004015b60648310612469576064830492506002015b600a83106106935760010192915050565b600080612485612194565b9150915061249a8165ffffffffffff16151590565b15806124ae57504265ffffffffffff821610155b156124d6576040516319ca5ebb60e01b815265ffffffffffff8216600482015260240161078d565b6124f260006124ed6003546001600160a01b031690565b6126ac565b506124fe60008361263d565b5050600280546001600160d01b031916905550565b6000828152600160208190526040909120015461252f81612225565b61118f83836126ac565b61223a600080612720565b61254e8282611b8e565b6106d75760405163e2517d3f60e01b81526001600160a01b03821660048201526024810183905260440161078d565b600354600160d01b900465ffffffffffff168015612600574265ffffffffffff821610156125d657600354600280546001600160d01b0316600160a01b90920465ffffffffffff16600160d01b02919091179055612600565b6040517f2b1fa2edafe6f7b9e97c1a9e0c3660e645beb2dcaa2d45bdbf9beaf5472e1ec590600090a15b50600380546001600160a01b0316600160a01b65ffffffffffff948516026001600160d01b031617600160d01b9290931691909102919091179055565b60008261269b5760006126586003546001600160a01b031690565b6001600160a01b03161461267f57604051631fe1e13d60e11b815260040160405180910390fd5b600380546001600160a01b0319166001600160a01b0384161790555b6126a583836127e7565b9392505050565b6000821580156126c957506003546001600160a01b038381169116145b156126df57600380546001600160a01b03191690555b6126a58383612860565b600065ffffffffffff82111561271c576040516306dfcc6560e41b8152603060048201526024810183905260440161078d565b5090565b600061272a612194565b6002805465ffffffffffff8616600160a01b026001600160d01b03199091166001600160a01b03881617179055915061276c90508165ffffffffffff16151590565b156112c2576040517f8886ebfc4259abdbc16601dd8fb5678e54878f47b3c34836cfc51154a960510990600090a1505050565b6000806127aa6120f5565b90508065ffffffffffff168365ffffffffffff16116127d2576127cd8382613029565b6126a5565b6126a565ffffffffffff8416620697806128cd565b60006127f38383611b8e565b6128585760008381526001602081815260408084206001600160a01b0387168086529252808420805460ff19169093179092559051339286917f2f8788117e7eff1d82e926ec794901d17c78024a50270940304540a733656f0d9190a4506001610693565b506000610693565b600061286c8383611b8e565b156128585760008381526001602090815260408083206001600160a01b0386168085529252808320805460ff1916905551339286917ff6391f5c32d9c69d2a47ea670b442974b53935d1edc7fd64eb21e047a839171b9190a4506001610693565b60008183106128dc57816126a5565b5090919050565b828054828255906000526020600020908101928215612938579160200282015b8281111561293857825182546001600160a01b0319166001600160a01b03909116178255602090920191600190910190612903565b5061271c9291505b8082111561271c5760008155600101612940565b60006020828403121561296657600080fd5b81356001600160e01b0319811681146126a557600080fd5b60006020828403121561299057600080fd5b5035919050565b6001600160a01b03811681146106ac57600080fd5b600080604083850312156129bf57600080fd5b8235915060208301356129d181612997565b809150509250929050565b6000602082840312156129ee57600080fd5b81356126a581612997565b600081518084526020808501945080840160005b83811015612a325781516001600160a01b031687529582019590820190600101612a0d565b509495945050505050565b634e487b7160e01b600052602160045260246000fd5b60048110612a7157634e487b7160e01b600052602160045260246000fd5b9052565b602081528151602082015260006020830151612a9c60408401826001600160a01b03169052565b506040830151610180806060850152612ab96101a08501836129f9565b915060608501516080850152608085015160a085015260a0850151612ae160c0860182612a53565b5060c085015180151560e08601525060e0850151610100612b058187018315159052565b8601519050610120612b21868201836001600160a01b03169052565b86015161014086810191909152860151610160808701919091529095015193019290925250919050565b60008060008060608587031215612b6157600080fd5b843593506020850135612b7381612997565b9250604085013567ffffffffffffffff80821115612b9057600080fd5b818701915087601f830112612ba457600080fd5b813581811115612bb357600080fd5b8860208260061b8501011115612bc857600080fd5b95989497505060200194505050565b600080600060408486031215612bec57600080fd5b83359250602084013567ffffffffffffffff80821115612c0b57600080fd5b818601915086601f830112612c1f57600080fd5b813581811115612c2e57600080fd5b876020828501011115612c4057600080fd5b6020830194508093505050509250925092565b600060208284031215612c6557600080fd5b813565ffffffffffff811681146126a557600080fd5b80151581146106ac57600080fd5b6000806000806000806000806000806101408b8d031215612ca957600080fd5b8a35995060208b0135612cbb81612997565b985060408b0135975060608b0135965060808b0135612cd981612c7b565b955060a08b0135612ce981612c7b565b945060c08b0135612cf981612997565b8094505060e08b013592506101008b013591506101208b013590509295989b9194979a5092959850565b60008060408385031215612d3657600080fd5b50508035926020909101359150565b634e487b7160e01b600052603260045260246000fd5b634e487b7160e01b600052601160045260246000fd5b8082018082111561069357610693612d5b565b600060018201612d9657612d96612d5b565b5060010190565b808202811582820484141761069357610693612d5b565b600060208284031215612dc657600080fd5b81516126a581612c7b565b6020808252818101839052600090604080840186845b87811015612e1d578135612dfa81612997565b6001600160a01b0316835281850135858401529183019190830190600101612de7565b5090979650505050505050565b6000825160005b81811015612e4b5760208186018101518583015201612e31565b506000920191825250919050565b600060208284031215612e6b57600080fd5b5051919050565b606081528360608201528385608083013760006080858301015260006080601f19601f870116830101905083602083015282604083015295945050505050565b634e487b7160e01b600052604160045260246000fd5b8181038181111561069357610693612d5b565b634e487b7160e01b600052603160045260246000fd5b600181815b80851115612f2c578160001904821115612f1257612f12612d5b565b80851615612f1f57918102915b93841c9390800290612ef6565b509250929050565b600082612f4357506001610693565b81612f5057506000610693565b8160018114612f665760028114612f7057612f8c565b6001915050610693565b60ff841115612f8157612f81612d5b565b50506001821b610693565b5060208310610133831016604e8410600b8410161715612faf575081810a610693565b612fb98383612ef1565b8060001904821115612fcd57612fcd612d5b565b029392505050565b60006126a58383612f34565b600082612ffe57634e487b7160e01b600052601260045260246000fd5b500490565b65ffffffffffff81811683821601908082111561302257613022612d5b565b5092915050565b65ffffffffffff82811682821603908082111561302257613022612d5b56fedf8b4c520ffe197c5343c6f5aec59570151ef9a492f2c624fd45ddde6135ec42a2646970667358221220f69bb93a655e381cb1f4673ec166d5f707ea561ccd73d1e23456f67a04bb224064736f6c63430008150033","linkReferences":{}},"methodIdentifiers":{"ADMIN()":"2a0acc6a","DEFAULT_ADMIN_ROLE()":"a217fddf","acceptDefaultAdminTransfer()":"cefc1429","beginDefaultAdminTransfer(address)":"634e93da","cancelChallenge(bytes32)":"7f205caa","cancelDefaultAdminTransfer()":"d602b9fd","changeDefaultAdminDelay(uint48)":"649a5ec7","createChallenge(uint256,address,uint256,uint256,bool,bool,address,uint256,uint256,uint256)":"8b65272b","defaultAdmin()":"84ef8ffc","defaultAdminDelay()":"cc8463c8","defaultAdminDelayIncreaseWait()":"022d63fb","getChallenge(bytes32)":"458d2bf1","getChallengeCount()":"0933f467","getNumDigits(uint256)":"b06104bb","getProviderVault()":"aa2c9983","getRoleAdmin(bytes32)":"248a9ca3","getTrimmedNumber(uint256,uint256)":"c785dc3d","grantRole(bytes32,address)":"2f2ff15d","hasRole(bytes32,address)":"91d14854","imageId()":"ef3f7dd5","joinChallenge(uint256,bytes)":"47c8b9c0","leaveChallenge(bytes32)":"b4477c01","lockChallenge(bytes32)":"4f75a689","owner()":"8da5cb5b","pendingDefaultAdmin()":"cf6eefb7","pendingDefaultAdminDelay()":"a1eda53c","renounceRole(bytes32,address)":"36568abe","resolveChallenge(bytes32,address,(address,uint256)[])":"46e207ae","revokeRole(bytes32,address)":"d547741f","rollbackDefaultAdminDelay()":"0aa6220b","setProviderVault(address)":"2fced4bf","supportsInterface(bytes4)":"01ffc9a7","verifier()":"2b7ac3f3"},"id":1}